:020000040800F2
:100000005809002029B90008CDAC0008CFAC000881
:10001000E3AC0008E5AC0008E7AC00080000000015
:10002000000000000000000000000000274600085B
:10003000E9AC000800000000E1450008EBAC000856
:10004000CDBA0008D1BA0008D5BA0008D9BA00085C
:10005000DDBA0008E1BA0008E5BA0008E9BA00080C
:10006000EDBA0008F1BA0008F5BA0008F9BA0008BC
:10007000F3AC0008FDBA0008FDAC000801BB0008A5
:1000800005BB000807AD000809BB00080DBB000850
:1000900011BB000815BB000819BB00081DBB0008F8
:1000A00021BB000825BB000829BB00082DBB0008A8
:1000B00031BB000835BB000839BB00083DBB000858
:1000C00041BB000845BB000849BB00084DBB000808
:1000D00051BB000811AD000825AD000839AD00087E
:1000E00055BB000859BB00085DBB000861BB000898
:1000F0004DAD000865BB000869BB00086DBB00087A
:1001000071BB000875BB000879BB00087DBB000807
:1001100057AD00086BAD000881BB000885BB000827
:1001200089BB00088DBB000891BB00087FAD0008AB
:100130004FF4E07210440268914203D343681A44BA
:10014000914202D380680028F5D17047DFF85C0740
:10015000016891B94FF4803181604FF48051416062
:100160004FF0FF31C16001610421DFF84427416194
:10017000C2F8BC11DFF83C1701600120704701F1A3
:10018000080313F0070305D001F10803C3F10803C6
:1001900003F007031944D21A8161C26042F00103DF
:1001A0004B60114428234B60DFF800170969C161D7
:1001B00070472DE9F84F064601F1080010F00700DE
:1001C00008BF884607D001F10800C0F1080000F020
:1001D000070001EB000802F1080010F0070006D04C
:1001E00002F10800C0F1080000F0070002441546C3
:1001F000A5EB0800A0EB030908EB030B43F0030099
:10020000C8F80400AB4528BF01F00CFA2879C007F4
:1002100058BF01F007FAB9F1100F38BF01F002FA28
:10022000B069854209D1F0684844F060C6F818B05A
:1002300040F00100CBF8040070E1706985420BD1F9
:10024000B0684844B060C6F814B040F00101CBF883
:1002500004104BF8000061E1686800F00301012917
:1002600040F0AF80C008C0000190C00820283BD2F9
:10027000D5F808A0EF680090BD4208BF01F0D2F9A0
:10028000554508BF01F0CEF968680099C008C00064
:10029000B0EBC10F18BF01F0C5F9009806EBC00024
:1002A00000F128018A4508D031698A45C0F0848070
:1002B000DAF80C10A94240F07F80574506D1009A29
:1002C0003068012191408843306077E028308742D0
:1002D00005D0306987426FD3B868A8426CD1CAF89C
:1002E0000C70C7F808A069E0EF68D5F818A0AF4215
:1002F0000CD0A8683169884223D3C168A94204BFE1
:10030000B968A9421DD1C760B8601CE005F11400AE
:10031000076837B905F110000768A7B101E0084682
:10032000076807F114010A68002A02BF07F11001EB
:100330000A68002AF3D13169884202D300210160A2
:1003400001E001F06FF9BAF1000F37D0E86906EB70
:1003500080004FF49871084401688D4208D107600D
:10036000A7B9EA697068012191408843706025E06F
:100370003069824508D3DAF81000A84214BFCAF8E1
:100380001470CAF8107001E001F04CF9B7B130698F
:10039000874211D3C7F818A0296929B1814226BF25
:1003A00039618F6101F03EF9686938B1316988427D
:1003B00002D37861876101E001F034F901980544C6
:1003C000814468684008400068604FEAD90549F0F8
:1003D0000100CBF804004BF80990202D23D206EB46
:1003E000C50000F12807BA46B9F1100F38BF01F077
:1003F00019F9306820FA05F1C90704D40121A94090
:100400000843306006E0B868316988422CBF8246F4
:1004100001F008F9C7F808B0CAF80CB0CBF808A08A
:10042000CBF80C707AE05FEA192108BF002023D0D6
:10043000B1F5803F28BF1F201ED2A1F58070000CAF
:1004400000F008008140A1F58052120C02F0040275
:100450009140A1F580431B0CC0F10E0003F0020394
:10046000801AC01A994000EBD130C11D29FA01F25F
:1004700002F0010101EB400006EB80014FF498729D
:100480001144CBF81C000022CBF81420CBF810202C
:10049000726822FA00F3DB0707D4012303FA00F0A5
:1004A00010437060C1F800B01DE009681F281DBF2F
:1004B0004008C0F1190009FA00F0484600E0114672
:1004C0004A68D208D2004A4514D0C20F01EB82021A
:1004D00002F1100340001A68002AF0D1306983420B
:1004E0001AD3C3F800B0CBF81810CBF80CB0CBF887
:1004F00008B013E032698868914228BF90420BD35C
:10050000C0F80CB0C1F808B0CBF80800CBF80C105C
:100510000020CBF8180001E001F084F808F1080091
:10052000BDE8E68F2DE9FA4D0546DFF88003006847
:1005300082B008B9FFF70AFEDFF8700302998068FD
:1005400041182F31401E21EA00000299814280F0BB
:10055000A9814FF4D8716E18B16839B1326880182A
:10056000824280F09F818142C0F09C8101F06AF854
:1005700000281EBF0446D0F8008014F1010F00F0DF
:1005800091813068716840448142306038BF0146D3
:100590007160A86980BB286908B1844200D22C61CF
:1005A0000020F0613461C6F8148005F12801BF48CD
:1005B000006868624FF0FF3028620020C9608960DF
:1005C00001F108024A610A61801C10312028F5D32C
:1005D000B748854203D1A8F1280221462AE055F800
:1005E000040CC00805EBC000A0F1080104EB0800F2
:1005F000401AA0F128021DE04FF4E07029180846C7
:1006000000E08068D0B1026843681A449442F8D18F
:10061000027B120712D4AA6903689A420ED3476874
:100620003B449A420AD208EB07014160E868A96995
:1006300008EB00022846FFF7A2FD1DE1286984426D
:10064000084638BF2C6104EB080100E0806880B1E7
:1006500002688A42FAD1017B09070AD40460416822
:10066000414441602146029B284604B0BDE8F04D5C
:100670009FE5AF6939462846FFF75AFD4FF0000B5A
:100680000168406808440190273810F0070101997B
:100690000EBF0020C0F1080000F0070008442F380A
:1006A00007F11001884234BF00970090009804F1D0
:1006B000080100F1180A11F00701A8F1280005D07F
:1006C00004F10801C1F1080101F00701401A2144B9
:1006D000A961E86040F001024A60084428224260B3
:1006E00072480069E8610098083010F0070018BFF0
:1006F00000F098FF00991B2048604FF4E0712944F6
:10070000B1E80C5000980830A0E80C503461C6F8ED
:100710001480C6F81CB000980830B061019801E060
:100720000AF1040A0721CAF804100BF1010B0AF1BF
:1007300008018142F4D3BBF1020FB8BF00F072FF91
:100740000098B84200F09880C01B3918C4084A6865
:10075000520852004A6040F0010179603850202C64
:1007600020D205EBC40101F12806B046102838BF9D
:1007700000F058FF286820FA04F1C90704D40121C9
:10078000A1400843286006E0B068296988422CBF70
:10079000804600F047FFB760C8F80C70C7F80880C3
:1007A000FE6069E0010A23D0B1F5803F28BF1F2118
:1007B0001ED2A1F58072120C02F008029140A1F540
:1007C00080531B0C03F004039940A1F58044240CD2
:1007D000C2F10E0204F00204D21A121BA14002EB75
:1007E000D131CA1D20FA02F303F0010202EB4101EC
:1007F00005EB81024FF498731A44F96100237B6181
:100800003B616B6823FA01F4E40705D401208840BA
:100810001843686017601CE012681F291DBF490853
:10082000C1F1190100FA01F1014600E01A465368CE
:10083000DB08DB00834210D0CB0F02EB830303F114
:10084000100449002368002BF0D12869844211D399
:100850002760BA61FF60BF600EE0296990688A4234
:1008600028BF884206D3C7609760B860FA6000204E
:10087000B86101E000F0D6FEE8680299814211D229
:10088000401AE860A969029A0A44AA6140F001008E
:100890005060029840F00300486004B001F1080085
:1008A000BDE8F08D002004B0BDE8F08D749100200B
:1008B000588900206859883C2DE9F84F04460026E5
:1008C00089465FEA1920C9F1000B08BF002123D037
:1008D000B0F5803F28BF1F211ED2A0F58071090C02
:1008E00001F008018840A0F58052120C02F00402C9
:1008F0009040A0F580431B0CC1F10E0103F00203F0
:10090000891AC91A984001EBD030C11D29FA01F2A9
:1009100002F0010101EB400104EB8100D0F830014D
:1009200018B31F290FBF4A464A08C2F1190209FA33
:1009300002F2002300E052004568ED08ED00A5EB4F
:1009400009055D4503D25FEA050B06460BD04569F4
:10095000D70F00EB8700002D00691CBF85422B4696
:100960000028E8D11846B8BBC6BB0120884040002B
:10097000414208436168084000F05D8141420840FF
:10098000401E010B01F01001C840420902F00802AC
:10099000D040830803F00403D840450805F0020561
:1009A0005118E8405918C0F3400729443944F84029
:1009B000401804EB8000D0F830010DE00846416893
:1009C000C908C900A1EB090159453CBF8B46064641
:1009D00001690029F2D140690028F0D1002E00F011
:1009E0002A81A068A0EB0900834580F0248120695A
:1009F0008642C0F01E817068C00809EB0B08C00079
:100A0000404518BF00F00EFE06EB0905AE4280F02F
:100A10001081F768D6F818A0B7420CD0B0682169E9
:100A2000884223D3C168B14204BFB968B1421DD125
:100A3000C760B8601CE006F11400076837B906F11A
:100A400010000768A7B101E00846076807F1140124
:100A50000A68002A02BF07F110010A68002AF3D1D0
:100A60002169884202D30021016001E000F0DAFD33
:100A7000BAF1000F39D0F06904EB80004FF498719F
:100A8000084401688E4209D10760380014D1F26928
:100A90006068012191408843606026E020698245BA
:100AA00008D3DAF81000B04214BFCAF81470CAF8BC
:100AB000107001E000F0B6FDBFB12069874212D38B
:100AC000C7F818A0306930B12169884226BF386163
:100AD000876100F0A7FD706938B12169884202D3AF
:100AE0007861876101E000F09DFDBBF1100F09D234
:100AF00048F00300706006EB0800416841F0010116
:100B0000416095E049F0030070604BF001006860BF
:100B10004FEADB0045F80BB020281DD204EBC001E2
:100B200001F12807216821FA00F2D207BB4605D45B
:100B3000012202FA00F00843206006E0B86821694B
:100B400088422CBF834600F06DFDBD60CBF80C5091
:100B5000C5F808B0EF606BE05FEA1B2023D0B0F56A
:100B6000803F28BF1F201ED2A0F58071090C01F024
:100B700008018840A0F58052120C02F00402904057
:100B8000A0F580431B0CC1F10E0103F00203891A8A
:100B9000C91A984001EBD030C11D2BFA01F202F0C6
:100BA000010101EB400004EB80014FF49872114405
:100BB000E86100226A612A61626822FA00F3DB07B9
:100BC00006D4012303FA00F0104360600D601CE0BE
:100BD00009681F281DBF4008C0F119000BFA00F07A
:100BE000584600E011464A68D208D2005A4510D053
:100BF000C20F01EB820202F1100340001A68002AC2
:100C0000F0D12069834211D31D60A961ED60AD6010
:100C10000EE022698868914228BF904206D3C560E1
:100C20008D60A860E9600020A86101E000F0FAFC96
:100C300008E100F0F7FC02E12DE9F84F0446884690
:100C4000606841420840401E010B01F01001C8409D
:100C5000420902F00802D040830803F00403D840A0
:100C6000450805F002055118E8405918C0F3400640
:100C700029447118F040401804EB8000D0F830018E
:100C80004168C908C9000646A1EB080A09E0084600
:100C90004168C908C900A1EB080151453CBF8A461B
:100CA000064601690029F2D140690028F0D1206987
:100CB0008642C0F0C2807068C00808EB0A09C00014
:100CC000484518BF00F0AEFC06EB080B5E4580F00F
:100CD000B480F768B569B7420CD0B0682169884222
:100CE00023D3C168B14204BFB968B1421DD1C76006
:100CF000B8601CE006F11400076837B906F110006F
:100D00000768A7B101E00846076807F114010A68FF
:100D1000002A02BF07F110010A68002AF3D12169F5
:100D2000884202D30021016001E000F07BFC002D2D
:100D300035D0F06904EB80004FF4987108440168E5
:100D40008E4209D10760380011D1F2696068012133
:100D500091408843606022E02069854205D328697C
:100D6000B04214BF6F612F6101E000F05BFCB7B1CE
:100D70002069874211D3BD61306930B12169884251
:100D800026BF3861876100F04DFC706938B1216978
:100D9000884202D37861876101E000F043FCBAF138
:100DA000100F09D249F00300706006EB090041689A
:100DB00041F0010141603FE048F0030070604AF0FB
:100DC0000100CBF804004BF80AA0D4F808804FEAE1
:100DD000D805202D28BF00F025FCB8F1000F27D042
:100DE000D4F81490009504EBC50000F128052F46B7
:100DF000B8F1100F38BF00F015FC2068009920FAF8
:100E000001F2D10705D4009A0121914008432060E6
:100E100006E0A868216988422CBF074600F002FC62
:100E2000C5F80890C7F80C90C9F80870C9F80C50BC
:100E3000C4F808A0C4F814B004E000F0F3FB0020EC
:100E4000BDE8F28F06F10800BDE8F28F2DE9F04F02
:100E500083B00546AFF30080F52DDFF8C04780F082
:100E600002810B2D31BF102705F10B00C708FF00D1
:100E70002068FE08F04010F0030F42D0C04300F09D
:100E80000100861904EBC60000F12808F700D8F825
:100E900008506868C008C000B84218BF00F0C2FB24
:100EA000D5F80890454508BF00F0BCFB4D4508BF8C
:100EB00000F0B8FB6868C008C000B84218BF00F076
:100EC000B1FBC84505D120680121B14088432060AD
:100ED0000DE02069814508D3D9F80C00A84204D15F
:100EE000C8F80890C9F80C8001E000F09BFB47F0BF
:100EF00003006860E8190835416841F0010141606C
:100F0000F9E0A168B94280F0C080002800F0A2801A
:100F1000012505FA06F149004A42B0401143084054
:100F200041420840401E010B01F01001C840420937
:100F300002F00802D040830803F00403D8404608BA
:100F400006F002065118F0405918C0F34008711815
:100F5000414420FA08F000EB010804EBC80000F15E
:100F600028094FEAC80AD9F808607068C008C000AC
:100F7000504518BF00F056FBD6F808B04E4508BFE4
:100F800000F050FB5E4508BF00F04CFB7068C008E5
:100F9000C000504518BF00F045FBD94505D1206879
:100FA00005FA08F1884320600DE02069834508D3E5
:100FB000DBF80C00B04204D1C9F808B0CBF80C90B3
:100FC00001E000F02FFB47F003007060AAEB070878
:100FD000F019019048F0010001994860019840F82B
:100FE0000880A7684FEAD70ABAF1200F28BF00F09F
:100FF00019FB47B3CDF800A004EBCA00D4F8149055
:1010000000F1280AD346102F38BF00F00BFB2068F0
:10101000009920FA01F2D10705D4009905FA01F1EF
:101020000843206007E0DAF80800216988422CBFF5
:10103000834600F0F7FACAF80890CBF80C90C9F88C
:1010400008B0C9F80CA0C4F8088006F1080501989A
:10105000606150E06068C0B339462046FFF7ECFDA0
:10106000050012D047E015F1400F28BF4FF0FF37C1
:101070000BD205F10B00C7086068FF0028B13946A4
:101080002046FFF719FC050035D1A068B8421CD3F3
:10109000C11B626910290AD3D0196061A16041F0B7
:1010A00001034360415047F0030050600AE0002113
:1010B000A160616140F0030151601044416841F05A
:1010C0000101416002F1080515E0E06887420DD298
:1010D000C01BA169E060CA19A26140F00100506024
:1010E00001F1080547F00300486004E03946204656
:1010F000FFF718FA0546AFF30080284603B0BDE8B5
:10110000F08F00B970472DE9F047A0F10804AFF364
:101110000080DFF8085528698442C0F07982616850
:1011200001F00302012A00F07382CA084FEAC208E4
:10113000CA0704EB080937D4226811F0030F00F046
:10114000698251420C4484429044C0F061826969D2
:101150008C4200F0D980D608202E70D2D4F80CA092
:10116000A768544508BF00F05DFABC4208BF00F014
:1011700059FA6068C008C000B0EBC60F18BF00F095
:1011800051FA05EBC60000F128018F4205D029690C
:101190008F4251D3F968A1424ED1BA453DD128685A
:1011A0000121B140884328604C4580F03182D9F854
:1011B0000400C10740F12C82810700F17D81A969FB
:1011C000894540F0B680E868AC614044E86040F092
:1011D0000101616069698C4202D100216961A960E5
:1011E000E969814280F01682DFF83404006808B9AA
:1011F000FEF7ACFFA969002900F00C82E8682928F5
:1012000024BF2846FEF794FFE869E968884280F029
:1012100001824FF0FF30E861FCE12830824506D0C2
:101220002869824508D3DAF80800A04204D1C7F83B
:101230000CA0CAF80870B7E700F0F4F9B4E7E76863
:10124000A669A7420BD0A168814222D3C868A042F8
:1012500004BFB868A0421CD1CF60B9601BE004F1A4
:1012600014010F6837B904F110010F689FB101E054
:1012700011460F6807F114021368002B02BF07F133
:1012800010021368002BF3D1814202D300200860C2
:1012900001E000F0C7F9002E86D0E06905EB800080
:1012A0004FF49871084401688C4209D107603800F6
:1012B00011D1E2696868012191408843686073E751
:1012C0002869864205D33069A04214BF776137612F
:1012D00001E000F0A7F9002F3FF466AF28698742CC
:1012E000AAD3BE61216929B1814226BF39618F61CC
:1012F00000F098F9606900283FF456AF29698842E8
:101300009AD3786187614FE799F8040000F00300F1
:1013100003287FF449AFC5F80880D9F804004008D5
:101320004000C9F8040048F00100606044F80880FB
:1013300070E16969894508D1A8686C614044A8607A
:1013400040F001016160205064E1C008C0004FEA34
:10135000D00ABAF1200F804437D2D9F80C70D9F8EE
:101360000860B94508BF00F05DF9B14508BF00F05D
:1013700059F9D9F80400C008C000B0EBCA0F18BF73
:1013800000F050F905EBCA0000F128018E4207D0A9
:1013900029698E42C0F08380F168494540F07F8022
:1013A000B74206D12868012101FA0AF18843286072
:1013B00077E02830874205D0286987426FD3B86824
:1013C00048456CD1F760BE606BE0D9F80C70D9F875
:1013D00018604F450DD0D9F808002969884223D3F9
:1013E000C168494504BFB96849451DD1C760B860A7
:1013F0001CE009F11400076837B909F1100007680B
:10140000A7B101E00846076807F114010A68002A3D
:1014100002BF07F110010A68002AF3D12969884246
:1014200002D30021016001E000F0FCF8002E38D06A
:10143000D9F81C0005EB80004FF49871084401684E
:1014400089450AD10760380012D1D9F81C20686894
:10145000012191408843686023E02869864205D3D2
:101460003069484514BF7761376101E000F0DAF870
:10147000BFB12869874212D3BE61D9F8101029B1D3
:10148000814226BF39618F6100F0CCF8D9F8140091
:1014900038B12969884202D37861876101E000F0A0
:1014A000C1F848F00100606044F80880686984422F
:1014B0000BD1C5F80880ADE040084000C9F8040031
:1014C00048F00100606044F808804FEAD807202FF8
:1014D00022D205EBC70000F128094E46B8F1100FE3
:1014E00038BF00F09FF8286820FA07F1C90704D434
:1014F0000121B9400843286007E0D9F808002969AC
:1015000088422CBF064600F08DF8C9F80840F46008
:10151000A660C4F80C907DE05FEA182008BF0021A7
:1015200023D0B0F5803F28BF1F211ED2A0F58071C7
:10153000090C01F008018840A0F58052120C02F05D
:1015400004029040A0F580431B0CC1F10E0103F092
:101550000203891AC91A984001EBD030C11D28FA3C
:1015600001F202F0010101EB400105EB81004FF4B3
:1015700098721044002262612261E1616A6822FA75
:1015800001F3DB0706D4012303FA01F1114369607B
:1015900004601CE000681F291DBF4908C1F1190142
:1015A00008FA01F1414600E010464268D208D20034
:1015B000424510D0CA0F00EB820202F1100349002D
:1015C0001A68002AF0D129698B4211D31C60A061EE
:1015D000E460A4600EE02A698168904228BF9142CD
:1015E00006D3CC608460E060A1600020A06101E0CF
:1015F00000F018F8286A401E28620BD1D5F8C801FF
:1016000000E080680028FCD14FF0FF30286201E044
:1016100000F008F8AFF30080BDE8F087588900209B
:1016200074910020012000F023B88268521C82606F
:10163000426832B10268531C036011704168491E50
:10164000416070470749086808B1002070470648A4
:10165000C008C00008600549C908C900091A01602E
:10166000704700BF949300205F09002058090020B4
:1016700080B5AFF30080024A11001820ABBEFBE733
:10168000260002002DE9F04F82460FF25860A5B007
:1016900015461E46D0E90023CDE9122303AF0020F2
:1016A0007960B8620DF1500900E045440020ADF8C2
:1016B000020012AB4FF0FF3229460DF1020001F09B
:1016C000AEF88046B8F1010F08DA2878B0F10108C9
:1016D00068EB08086FEA08004FEAD078BDF802000E
:1016E00025280CBFA8F1010BC346BBF1010F0EDB8F
:1016F0002C4614F8011B7868D0470028786000F069
:10170000F880B86A401CBBF1010BB862F1D1BDF89A
:101710000200252807D1002038617861B861F8619E
:101720003862786205E00028BFD1B86AE2E240F092
:10173000010015F8011F2029F9D023290DD02B29EC
:1017400004D02D2906D030290AD00CE040F0020048
:1017500080B2EEE740F00400FAE740F00800F7E757
:1017600040F01000F4E72A290ED13168316051F8B9
:10177000042B3160002A3A6304D5514240F0040042
:10178000396380B26D1C13E0002139630BE0396BC3
:101790006FF00043994205D001EB810302EB430156
:1017A000303939636D1C2A78A2F130010A29EED351
:1017B00029782E2903D04FF0FF31F9621FE015F888
:1017C000011F2A2907D1316831606D1C51F8042BA3
:1017D0003160FA6213E00021F9620BE0F96A6FF000
:1017E0000043994205D001EB810302EB43013039FC
:1017F000F9626D1C2A78A2F130010A29EED3B8866D
:101800000FF2E840297801F01FF808B115F8010B34
:101810008DF842009DF84200682802BF29786829A7
:10182000622005D06C2804BF28786C2803D1712071
:101830008DF842006D1C14A8F86015F8014BB4F146
:1018400025002AD01C3800F0DB80001F022840F25F
:10185000D780133800F0FB80093800F0D180801E5B
:1018600000F06581401E00F03C81401E022840F2DD
:10187000C780001F00F03581401F00F09280401E9D
:1018800000F0E580401E37D0C01E0BD0801E00F057
:10189000DE80C01E00F0DB806CE125208DF850005A
:1018A000012070E19DF842006C283068306016D04D
:1018B00050F8048B3060C7F80880FC6A002C04D50F
:1018C000404600F0CDFF044607E022460021404696
:1018D00000F0E2FF08B1A0EB08047C6154E150F88D
:1018E000042B306002A9504600F03EFA002840F177
:1018F0004B814FF0FF30FDE131683160002251F83B
:10190000040B31604FF03C0E0021CDE9020114A818
:10191000B860DDE902019142FC6808BF904201D144
:10192000FA6AC2B100F00F033033DBB23A2BA8BF22
:101930002733AEF101020009A354964640EA017034
:1019400009090022914208BF904204D0BA6804EB12
:101950000E039A42E6D304EB0E01B960CEF13C00CF
:10196000F96A7861884207DA081AF8614FF6EF7170
:10197000B88E0840B88607E1002940F1058197F844
:10198000341001F01401102940F0FE80396B3A69DF
:10199000891AFA69891A081A0128C0F2F580F861D3
:1019A000F2E09DF8420062281AD0682806D06A2822
:1019B0000CD06C281CD0712808D019E03068306039
:1019C00050F8041B3060B86A0880DDE03068306091
:1019D00050F8042B3060B86AC117C2E90001D3E0A7
:1019E0003068306050F8041B3060B86A0870CBE093
:1019F0003068306050F8041B3060B86A0860C3E09B
:101A00003068C01D20F007023260D2E900010832C0
:101A10003260CDE90201002902D538692D2109E0A3
:101A2000B88E810702D538692B2103E0C00705D5A0
:101A30003869202109F80010401C386114A8396960
:101A40000844B860214602A800F09AFB9CE09DF88B
:101A500042006C280DD0712818BF6A2809D130685F
:101A6000C01D20F007023260D2E900010832326066
:101A700005E03168316051F8040B31600021CDE997
:101A800002019DF84200682803D1DDE9020180B21D
:101A90000BE0622803D1DDE90201C0B205E0742841
:101AA00018BF7A2804D1DDE902010021CDE9020145
:101AB00097F83400000731D5DDE902230020834286
:101AC00008BF82422AD044F02000782826D1386905
:101AD000302109F80010401C411C396109F8004010
:101AE0001CE09DF84200314600F007F9CDE9020103
:101AF000DDE9022300218B4202DA38692D2109E059
:101B0000B88E810702D538692B2103E0C00705D5BF
:101B10003869202109F80010401C386114A839697F
:101B20000844B860214602A800F0A4FA2CE09DF811
:101B300042006C2809D0012038613068306050F8CC
:101B4000041B30608DF850101EE03068306001AA30
:101B500050F8041B3060ADF804100020ADF806000A
:101B600002A94FF0FF30F862504600F0FDF800285F
:101B70000AD5BEE625208DF85000012038611CB141
:101B800089F8014002203861386B3969401AF969D7
:101B9000401A7969401A396A401AB969401A796A53
:101BA000A0EB010897F83400400711D42020B8F1C9
:101BB000010F8DF800000BDB444601236A4602A9A1
:101BC000504600F007FE00287FF493AE641EF4D167
:101BD000D7F810B0BBF1000F14AC0DD014F8011BF6
:101BE0007868D047002878603FF483AEB86A401C1C
:101BF000BBF1010BB862F1D130208DF80000FC6917
:101C0000012C0ADB01236A4602A9504600F0E2FDDE
:101C100000287FF46EAE641EF4D1D7F814B0BC680F
:101C2000BBF1000F0DD014F8011B7868D0470028D5
:101C300078603FF45EAEB86A401CBBF1010BB8623D
:101C4000F1D130208DF800003C6A012C0ADB012321
:101C50006A4602A9504600F0BDFD00287FF449AE57
:101C6000641EF4D1B8687969D7F818B04418BBF18C
:101C7000000F0DD014F8011B7868D0470028786059
:101C80003FF437AEB86A401CBBF1010BB862F1D12A
:101C900030208DF800007C6A012C0ADB01236A46A3
:101CA00002A9504600F096FD00287FF422AE641E83
:101CB000F4D197F8340040077FF5F8AC2020B8F154
:101CC000010F8DF80000FFF6F1AC01236A4602A96E
:101CD000504600F07FFD00287FF40BAEB8F10108FC
:101CE000F3D1E3E40000000000000000686A6C74B7
:101CF0007A4C000025B0BDE8F08F622826D0682815
:101D00001DD06A2808D06C2827D0712804D07428E8
:101D100023D07A280CD020E00868C01D20F00700EE
:101D20000860D0E900230830086019461046704763
:101D30000A680A6052F8040B0A60002170470A68BA
:101D40000A6052F8040B0A6000B20BE00A680A60ED
:101D500052F8040B0A6040B204E00A680A6052F8C4
:101D6000040B0A60C11770472DE9F44F0D4694B07B
:101D7000D5F830A0BAF1000F804648BF6FF0004A96
:101D800000F0B6FD696B401801900FF67820D0E99D
:101D90000023CDE9022395F83800400702D40198CA
:101DA000412805D240200DF110090190002609E0DC
:101DB000FFF74CF85FEA0009F8D14FF0FF3056E129
:101DC000AAEB040ABAF1010FC0F2CE801498018880
:101DD00002AA0DF1010000F090FD0028044600F178
:101DE000DE801498008810B9641E00F1D880A245E6
:101DF000C0F2BA80686901992218914280F0A280ED
:101E00006E634042296A401AA969401A696A401AF9
:101E1000E969401AA96A461A95F83800400710D4B3
:101E20002020012E8DF800000BDB374601236A4687
:101E30002946404600F0CEFC002840F0B0807F1ECE
:101E4000F4D1D5F814B0BBF1000F4F460DD017F800
:101E5000011BA868C0470028A86000F0A080E86ABD
:101E6000401CBBF1010BE862F1D130208DF800007D
:101E70002F6A012F0ADB01236A462946404600F0FB
:101E8000A9FC002840F08B807F1EF4D1D5F818B053
:101E9000EF68BBF1000F0CD017F8011BA868C04712
:101EA0000028A8607BD0E86A401CBBF1010BE86207
:101EB000F2D130208DF800006F6A012F09DB012379
:101EC0006A462946404600F085FC002867D17F1EFF
:101ED000F5D1E868A969D5F81CB04718BBF1000F27
:101EE0000CD017F8011BA868C0470028A86056D07E
:101EF000E86A401CBBF1010BE862F2D130208DF89A
:101F00000000AF6A012F09DB01236A4629464046DB
:101F100000F060FC002842D17F1EF5D195F8380012
:101F200040070DD52020012E8DF8000008DB01238D
:101F30006A462946404600F04DFC80BB761EF6D12D
:101F400000266E61224668690DF10101484400F0E7
:101F5000E1FC6869201868611498801C1490801E48
:101F6000008800287FF42CAF686B6969401A296AE1
:101F7000401AA969401A696A401AE969401AA96AAF
:101F8000A0EB010A95F83800400710D4BAF1010F10
:101F90000DDB5446A8682021C047A86010B94FF057
:101FA000FF365DE0E86A401C641EE862F2D16B69AE
:101FB0004A462946404600F00DFC0028EFD12C6A25
:101FC000012C0ADBA8683021C0470028A860E6D0B1
:101FD000E86A401C641EE862F4D1AB69EA682946ED
:101FE000404600F0F7FB0028D9D16C6A012C0ADBCF
:101FF000A8683021C0470028A860D0D0E86A401CFB
:10200000641EE862F4D1E868A969EB6942182946C0
:10201000404600F0DFFB0028C1D1AC6A012C0ADB8E
:10202000A8683021C0470028A860B8D0E86A401CE2
:10203000641EE862F4D195F8380040070ED5BAF175
:10204000010F0BDBA8682021C0470028A860A6D09C
:10205000E86A401CBAF1010AE862F3D16E616E636E
:1020600004A881451CBF4846FFF74BF8304615B021
:10207000BDE8F08F2DE9F343054608462F696F2828
:1020800008BF082405D041F02001782914BF0A2494
:1020900010243C26D5E90023642818BF69289046FF
:1020A000994606D100218B4203DAD8F1000869EB8A
:1020B00049090020814508BF80450CD1286B50B9E3
:1020C000082C38D195F83800000734D530203B264D
:1020D00087F83B002FE0701E0090064640464946B8
:1020E0002246E31700F052FC02F13000C0B23A2859
:1020F00003DB9DF8041051390818B855494640468D
:102100002246E31700F042FC8046894600208145C4
:1021100008BF804503D0E868B9198842DBD3082C92
:1021200009D195F83800000705D5B85D302802D0F0
:10213000761E3020B855B919E960C6F13C00296B0C
:10214000A861884208DA081A28624FF6EF71288FD2
:1021500008402887BDE8F38300290ED595F838108C
:1021600001F01401102908D1696B6A69891A2A6A79
:10217000891A0E1A012EA8BF2E62BDE8F383000053
:102180002DE9F24F04468EB0D4E90001CDE90201F9
:1021900004AF9DF8380040F0200BBBF1610F0AD06E
:1021A000206B002848BF062004D408BFBBF1670F8E
:1021B00001D1012020636168C1F30A5040F2FF722F
:1021C00090421CD1080304BF2068002809D10320D5
:1021D000A0619DF8380061381A2835D30FF23861B4
:1021E00008E00320A0619DF8380061381A2828D340
:1021F0000FF21C61E068032200F08CFBBDE10128B6
:1022000015DA204600F039FC012810DB00250020FB
:10221000BBF1610F1FD1E16830220A708A1CE260B5
:102220009DF83820612A0CBF782258220FE062689E
:1022300040F2FE3161F31E52451A62604FF0FF30EA
:10224000E6E70FF2C851D5E70FF2C851D2E74A705E
:102250006169891C616110B90026002584E1BBF128
:10226000610F40F09880206BD4E900AB00284CBF90
:102270002126461CDDE902010022002300F020FC9B
:1022800036B23ABF8BF00040CDE902A0CDE902ABF7
:1022900006F101082D1FB8F1010F8DF810200DF186
:1022A000110736DBDDE902010022002300F020FCEB
:1022B0002FD21C2102A800F033FCDDE9020100F05E
:1022C000B5FCA8F10708B8F1010F814609DB00F061
:1022D000D9FC02460B46DDE9020100F0EBFCCDE93A
:1022E0000201F81D072105E009F00F0200F8012D99
:1022F0004FEA2919B9F1010F01DB491EF4D5491E36
:102300005CBF002200F8012DF9D5C71DB8F1010FFF
:10231000C8DA0DF11100391AB142B8BF0E4636B213
:1023200030000DF111072FD4884206DA04A90144C8
:1023300049780829A8BF0F2100DA002104AA024425
:1023400000E0761E12F80139401E8B42F9D00F29A9
:1023500004D104A901444A78521C4A70002802D5CD
:1023600004AF761C2D1D36B2701E0DD439180A78B4
:102370003032D2B23A2A03DB9DF838303A3B9A1811
:10238000401E01F80129F2D5206B002840F1EC80B5
:10239000701E2063E8E0DDE902010022002300F066
:1023A0008FFB3CBF81F00041CDE902012DB247F225
:1023B000975068434B49DFF8309190FBF1F52DB20F
:1023C000C5F1070ABAF1010F90461CDBDDE902678F
:1023D0005FEACA7007D542464B463046394600F0A0
:1023E00029FD06460F464046494642464B464FEABF
:1023F0006A0A00F01FFDBAF1000F80468946E7D156
:10240000CDE9026724E0CAF1000A0026374F14E044
:102410005FEACA7007D542464B463046394600F05F
:1024200009FD06460F464046494642464B4600F0E7
:1024300001FD4FEA6A0A80468946BAF1000FE7D1EA
:10244000DDE9020132463B4600F0C6FDCDE902015E
:10245000BBF1660F216BDFF898900CBF05F10A0005
:1024600006204618142EA8BF132630208DF8100021
:102470000DF11107012E3DDBDDE9020100F0ECFB5F
:1024800007F1080104220A23B0FBF3F303EB8307EF
:10249000A0EB4700303001F8010C0A20B3FBF0F04C
:1024A00000EB8007A3EB47033033521E01F8023DD7
:1024B000E9D1083E012E01F10807DBDBDDE902016D
:1024C00000F0CAFB00F0E8FB02460B46DDE9020122
:1024D00000F0F0FB00224B4600F0ACFCCDE902011D
:1024E000CAE700BFA0860100000024400000F03FC2
:1024F00084D797410DF11100381A0DF1110702E050
:10250000401E6D1E7F1C39783029F9D0BBF1660F53
:1025100008BF691C04D0BBF1650F0CBF012100216D
:10252000226B8E1836B2B042B8BF064636B23100C2
:102530001AD4814204DA785C3528A8BF392000DA41
:1025400030207A18521E00E0761E12F80139491E1A
:102550008342F9D0392802D1785C401C7854002994
:1025600002D57F1E761C6D1C2DB29DF8381000958B
:1025700033B23A46204600F003F80FB0BDE8F08FC2
:102580002DE9F04786B006468A4690461D4600F083
:102590006CFE012D406A376B90F8009002DA01253D
:1025A0000FF278284AF02000BDF93840662808BFAD
:1025B000641C12D0672878D114F1040F7BDBBC4275
:1025C00079DA96F83800641C000702D4BD42B8BF1F
:1025D0002F4624B23F1B48BF002724B2F068B169E0
:1025E000012C23DA4A1C30234354012F03DA96F8D6
:1025F0003800000703D5F06800F80290521CE7424B
:10260000B8BF7C4224B260427062E719AF42B26147
:10261000B8BF3D46F068B3692DB2F5612A46414620
:10262000184400F077F9781BB062BCE0224695426E
:10263000084416DA2A46414600F06CF9B169691877
:10264000601B012FB161706203DA96F83800000751
:1026500005D5F06800F80190F069401CF061B762A0
:10266000A1E0414600F056F9B06920182D1B012F5A
:1026700003DA96F83810090703D5F16801F80090DD
:10268000401CB0612DB2AF42B8BF3D46F068B3699F
:102690002DB22A4608EB0401184400F03BF9B0695A
:1026A0002818B061781B70627DE0BAF1610F14D117
:1026B0004FF0700A16E0BD4204DA96F838100907A8
:1026C00058BF2F467F1E48BF0027BAF1670F14BFBF
:1026D0004FF0450A4FF0650A04E0BAF1410F08BF18
:1026E0004FF0500AB169F368481CB061012F18F827
:1026F000012B5A5403DA96F83810090717D5F168F8
:10270000431CB36101F80090012F10DB6D1E2DB248
:10271000AF42B8BF3D46F0682DB22A464146184444
:1027200000F0F8F8B0692818B061781B7062F068A2
:10273000B1690144200081F800A004D42B20487026
:1027400001F1020804E02D224A7001F102086442FE
:10275000002502AF08E00A22684600F09FFD0198BC
:1027600007F8010B6D1C009C21B20129F3DA022D40
:1027700006DA4AF02000652804BF302008F8010B73
:102780004DB9302008F8010B07E06D1E02A8405D2E
:10279000303008F8010B012DF7DAF068B169084410
:1027A000A8EB0000F06196F8380000F01400102843
:1027B0000DD17069B1690818716A0818F1690818B3
:1027C000B16A0818716B8842BCBF081A306206B043
:1027D000BDE8F087F8B504460D4616461F460020B2
:1027E00077B116F8011BA868A047A86030B1E86A65
:1027F000401CE86200207F1EF3D1F2BD4FF0FF3095
:10280000F2BD000000000000000000006E616E00DC
:102810004E414E00696E6600494E46003000F8B5E4
:1028200004460D4616461F4600F049FD3B4632461B
:102830002946204601B0BDE8F04000F056BD0268D0
:10284000531C0360117070470278C9B28A421AB1F2
:102850001CBF10F8012FF9E718BF002070470102D4
:1028600000F10103810704D010F8011B89B1810731
:10287000FAD10268B2F10131914311F0803F04BFF7
:1028800050F8042FF6E710F8011B11B110F8011BE6
:10289000FBE7C01A70470000C9B2830706D0521E7A
:1028A00022D310F8013B9942F7D11FE0083A13D325
:1028B00002F1040241EA012141EA014150F8043BDE
:1028C000121F21BF4B40A3F1013C2CEA030C1CF06A
:1028D000803FF3D0C9B2001F083210F8013B521EEE
:1028E00028BF91EA030FF8D818BF0120401E704797
:1028F00080B500F0E4FC012002BD70B504460D4631
:10290000164600F0DCFC324629462046BDE8704001
:1029100000F0DEBC62B38B0708D0521E11F8013BF9
:1029200000F8013B00F024808B07F6D1830740F0CC
:10293000208000BF103A07D330B4B1E83810103A05
:10294000A0E83810F9D230BC530724BFB1E8081012
:10295000A0E8081044BF51F8043B40F8043BD207FC
:1029600024BF31F8022B20F8022B44BF0B780370F0
:102970007047083A07D3B1E80810083A40F8043B1A
:1029800040F804CBF7D25307E4E700001B4213D111
:10299000094236D12AB18446B0FBF2F002FB10C2E4
:1029A000704700F0C5BCFCD30022002370470B0029
:1029B0000200002100207047904271EB030CF6D317
:1029C00070B5B1FA81F4B3FA83F52C1BA340C4F1BE
:1029D000200532FA05F63343A2405FF00046E64098
:1029E00002E05B085FEA3202841A71EB030524BF40
:1029F000204629467641F4D302000B003000002126
:102A000070BD012ACFD970B5140C20D0B1FA81F471
:102A1000B2FA82F5C4F120046419B4F12006D6D3C9
:102A2000B2405FF00044F440002502E052085FEA43
:102A30003303C61A71EB020E24BF3046714664415F
:102A40006D41F3D302000B002000290070BD0C463D
:102A5000B1FBF2F102FB11452D0445EA1045B5FB2F
:102A6000F2F402FB145580B240EA0545B5FBF2F0E2
:102A700002FB105240EA044070BD30B4436803F0DA
:102A800000420121C3F313034360002B04BF03681A
:102A9000002B08D10DE00368DD0F45EA44044460D3
:102AA0005B000360491E4468E302F4D5C4F31303DA
:102AB000436043681A434260084630BC70470000D8
:102AC0004FF4001C1CEB410F94BF1CEB430F09E0BB
:102AD00041EA030C50EA4C0C52EA0C0C03D2994226
:102AE00008BF9042704714BF8B428242704700007B
:102AF0004FF4001C1CEB410F94BF1CEB430F09E08B
:102B000041EA030C50EA4C0C52EA0C0C03D28B4203
:102B100008BF8242704714BF99429042704700003C
:102B200070B504460D466068C0F30A5040F2FF716C
:102B3000884207D16068000304BF2068002817D0CE
:102B4000022070BD20B92046FFF797FF012866DA02
:102B5000012D0FDB40F2FF71091A8D420AD3606824
:102B6000002847BF00202F4900202F49C4E9000159
:102B7000012070BD4142A942616806DA6FF31E511F
:102B8000401941EA0050606040E0401E636845190A
:102B9000012205F1350062F31F53352801F0004191
:102BA000636003D361600020206070BD002015F1D8
:102BB0001F0F04DA206823600022203562606A4219
:102BC00012D0401E25688041C2F12003C0439D40C1
:102BD00045EAD07025686668D54006FA03F32B43B2
:102BE00023606368D340636062680A43B0F1004FBA
:102BF000626003D80DD12078C0070AD52068401C38
:102C00002060206828B96068401C60604FF0FF3089
:102C100070BD6068884204BF20680028F6D100209B
:102C200070BD00BF0000F0FF0000F07FF446400DD3
:102C300040EAC120490006D200F014F8004248BF23
:102C40006FF00040604700F00DF84FF000418842FF
:102C50008CBF084640426047400D40EAC120490011
:102C600080F00D8040F00040490DA1F58061491CC5
:102C700005D4D1F11F0154BFC840C01770474FF0B1
:102C800000007047010040F10980F446404200F026
:102C900005F851F000416047010000BF09D0B0FACB
:102CA00080F18840C91CC1F58461090501EBD02180
:102CB00040057047F0B44FF0004591EA030F44BF60
:102CC0006B4000F037BB00BF841A71EB030604D2DF
:102CD0006E40001BB141121973414FF4001C1CEBF4
:102CE000410F34BF7CEB430684E00C0DA4EB13567C
:102CF000362E7DDC012E43DC45EAC32343EA5253E2
:102D000012BFD20292025B08240545EAC12141EAC2
:102D10005051D2EBC020994125D407D1B0FA80F6AA
:102D200010FA06F164D00020203608E0B1FA81F6EE
:102D3000B140C6F1200220FA02F21143B0404FEA3E
:102D4000F474B4EB465434F001064FEA74040AD824
:102D5000D6F50016760D04F00044F04061FA06F254
:102D60005040F1404840C00A40EA415021F0004143
:102D700028BF5FEA500550F1000044EBD12137E055
:102D800045EAC323DB0A45EAC121C90AB6F1200599
:102D90000EDD42EA0242120CC5F1200603FA06F6E5
:102DA000EB4042EA06056D42984161F100010DE0F9
:102DB00062FA06F5F240554063FA06FC82EA0C021C
:102DC000F3405A406D42904161EB030111F4801FC2
:102DD00005D1641E620502D06D004041494121F4D5
:102DE0008011430875F1004350F1000041EB04519C
:102DF000F0BC70471CEB410F15D223F0004352EAA0
:102E000043060BD04FEA4C0CBCEB410F04D80C0D21
:102E1000661E342EB7DDEBE7801A994150EA410671
:102E200008BF0021E4E708BF1CEB430F28BF6FF089
:102E30000001DDE7B0B581EA030C0CF0004C40F274
:102E4000FF7515EA11541DBF15EA1357AC42AF4286
:102E500039E0E41923EA455343F48013C90241F0F1
:102E6000004141EA505EC7021100A7FB02020028A0
:102E70004FF00000EEFB01204FF00001E3FB0721C3
:102E800018BF42F00102401800214941E3FB0E0146
:102E9000A4F580640F0302D252004041494154F12D
:102EA00001046CDD470872F1004250F1000051EB63
:102EB0000451A1F580115CBF41EA0C01B0BD4CEAA0
:102EC00005510020B0BD05EA1357AC4214BFAF4214
:102ED00041E050EA410E1CBF52EA430E02E0614657
:102EE0000020B0BD24423C441BD15FEA070EF6D05F
:102EF000090302BF01460020AEF1140EB1FA81F7BA
:102F0000AEEB070401FA07FE0C37C7F1200100FA07
:102F100007F7C8404EEA000E23EA455343F48013F6
:102F2000A2E733F00043B3FA83F704BFB2FA82FE9C
:102F300077440B3FE41BB7F1200E2FBF02FA0EF3CC
:102F4000BB40C7F1200E22FA0EFE38BF43EA0E0343
:102F5000BA40641C82E750EA410E14BF52EA430EA5
:102F60006FF000014FF4001717EB430F8ABF1946AB
:102F700017EB410FB5E74CEA05510020B0BDD4F185
:102F80000104B4F120070FDAC4F12007520828BF6A
:102F900042F0010210FA07F501FA07F7E1BF2A43F0
:102FA000E0403843E1400FE0352C98DCC7F12004C5
:102FB00052EA400220FA07F218BF42F0010231FA49
:102FC00007F0A1400A43002172F1004250F10000D5
:102FD00051EB0C01B0BD00002DE9F04140F2FF754E
:102FE00081EA030C0CF0004C15EA11541DBF15EAE0
:102FF0001357AC42AF42E9E0BC41C1F31301C3F344
:103000001303801A994143F4801304D2641E4000D4
:10301000494180185941C90241EA5051B1FBF3F6C8
:1030200003FB1611A2FB0675D7EBC020A94102D203
:10303000761E80185941C90241EA5051B1FBF3FE96
:1030400003FB1E11A2FB0E75D7EBC020A94103D2D2
:10305000AEF1010E80185941890241EA905176057E
:1030600046EA8E2EB1FBF3F603FB1611A2FB0675A2
:10307000D7EB8020A94102D2761E80185941C9029F
:1030800041EA50514EEA060EB1FBF3F603FB16116E
:10309000A2FB0675D7EBC020A94102D2761E80188C
:1030A0005941C90241EA5051B1FBF3F703FB171133
:1030B000A2FB0735D3EBC020A94167F100070CBF85
:1030C000004247F0010766F3D5274FEA1E31B808E2
:1030D00014F5806414DDBD0775F1004250EB0E500D
:1030E00051EB045111F5801F5CBF41EA0C01BDE8B2
:1030F000F0814CF07F6141F0E0410020BDE8F081BB
:10310000BD076D0840EA0E5041F48011D4F101046E
:10311000B4F120060ADAC4F120060200E04001FA08
:1031200006F3E1401843B24015430EE0342C14DCA2
:10313000C6F1200445EA40056D0820FA06F2154361
:1031400021FA06F0A1400D43002175F1004250F133
:10315000000051EB0C01BDE8F08100205FEA0C019A
:10316000BDE8F081CFB992185B41B3FA83F704BF91
:10317000B2FA82F6BF190B3FB7F120062FBF02FA51
:1031800006F3BB40C7F1200622FA06F638BF3343E8
:10319000BA401CB1E419641E2FE77F4231F00041B0
:1031A000B1FA81F404BFB0FA80F6A4190B3CB4F173
:1031B00020062FBF00FA06F1A140C4F1200620FA34
:1031C00006F638BF3143A0403C1B16E7AC421ABF9D
:1031D00005EA1357AF4214E050EA41061CBF52EA19
:1031E0004306BFE750EA4107304661461CBF41EA4B
:1031F0000551BDE8F08152EA430C08BFC143BDE868
:10320000F08100204FF4001616EB410F98BF16EB2B
:10321000430F08BF16EB410F24BFC14305E016EB77
:10322000430F0CBF61464CEA0551BDE8F081000038
:1032300080B5134800F0E8F80FF24C020FF2440199
:103240000160426241600FF24402826381600FF2CA
:103250004402C1600161416181618162C1620163B7
:103260004163C2630164416401BD10B5044800F0CC
:10327000CBF80446206808B9FFF7DAFF204610BDF6
:10328000CC000020000000002E00000066616C737E
:1032900065000000747275650000000091FBF2F398
:1032A00003FB1211C0E900317047000010B504465D
:1032B000DFF8180000F0A8F850F8240010BD80B521
:1032C000DFF8080000F0A0F8806902BD600000206F
:1032D00030B430B90FF24800D0E90045C2E90045EA
:1032E0001BE00170012030BC704730B431B90FF2DF
:1032F0003800D0E90045C3E900450EE01AB930BCFA
:103300006FF00100704708B10A7802800978481E02
:10331000804130BCC043C00F7047002030BC7047B4
:10332000000000000000000000000000000000009D
:1033300070470000841A71EB030603D2001BB141F1
:10334000121973414FF4001C1CEB410F34BF7CEB8E
:10335000430443E00C0DA4EB1356352E50DC45EA34
:10336000C323DB0A45EAC121C912B6F120050DDDF0
:1033700063FA05F6EB4086EA0305124218BF45F0F2
:103380000105C01851F100010CD213E062FA06F5F4
:10339000F2405540F3415A40B340F3405A40801840
:1033A000594107D349085FEA30005FEA350528BF75
:1033B00045F0010501F58011420875F1004250F118
:1033C000000041EB0451F0BC4FF4001C1CEB410F1A
:1033D00038BF70470020090D090570471CEB410FED
:1033E00010D252EA43060BD0BCEB410F05D80C0DAE
:1033F000AB43661E342EB5DD02E0AB438018594165
:10340000F0BC7047F0BC7047704700002DE9F04FEA
:1034100085B004000D0016001F00DDF83880DDF8CF
:103420003C90B6B2B00000F087FD8346BBF1000FC0
:103430000DD0582000F080FD8246BAF1000F02D076
:10344000CAF830B005E0584600F008FE01E0002060
:103450008246BAF1000F14D000200390CDF808A0E6
:10346000CDF80490CDF800803B00B6B232002900C0
:10347000200000F00DF8504600F07BF80120049089
:1034800002E05FF0FF300490049805B0BDE8F08FD3
:103490002DE9F94F83B00C0015000E9E0F9FDDF84B
:1034A0004080A8000190A5200090D8F830B0009A84
:1034B0000199584600F088FED8F8300000EB8500EE
:1034C000001F81465FEAD9095FEAC90919F00700C0
:1034D000002807D0502080F31188BFF34F8FBFF32F
:1034E0006F8FFEE700208246BAF1100F0CD214F85D
:1034F0000A0008EB0A0181F8340014F80A000028D9
:1035000002D01AF1010AEFE7002088F84300072EE5
:1035100001D306200600C8F82C60C8F844600020DB
:10352000C8F8480018F1040000F090FE18F11800E7
:1035300000F08CFEC8F81080D6F10700C8F818001B
:10354000C8F824800020C8F84C000020C8F85000BB
:10355000002088F85400049A0399484600F0B6FE0B
:10356000C8F80000002F01D0C7F8008005B0BDE802
:10357000F08F10B5040000F012FFDFF818050068A6
:10358000401CDFF810150860DFF80C050068002803
:103590000AD1DFF804050460DFF8F80400680128A8
:1035A00011D100F0F9FA0EE0DFF8F004006800280D
:1035B00009D1E06ADFF8E0140968C96A884202D3D9
:1035C000DFF8D4040460DFF8D8040068401CDFF89A
:1035D000D0140860DFF8F40400680121E26A914029
:1035E0000843DFF8E8140860211DDFF8E404E26A0C
:1035F00014235A43104400F02CFE00F0EDFEDFF8D7
:103600009C04006800280FD0DFF88C040068C06AB2
:10361000E16A884208D25FF08050DFF8A0160860A7
:10362000BFF34F8FBFF36F8F10BD38B50400002577
:10363000002C15D0DFF85C050068002807D050206A
:1036400080F31188BFF34F8FBFF36F8FFEE700F059
:1036500047F80021200000F00BFC00F049F80500BD
:10366000002D08D15FF08050DFF850160860BFF3DE
:103670004F8FBFF36F8F31BD1CB5DFF8D0070190BE
:103680000020009000238022DFF8C4170FF2D940F9
:10369000FFF7BCFE0400012C16D1502080F31188E6
:1036A000BFF34F8FBFF36F8F5FF0FF30DFF8A417CA
:1036B00008600120DFF8E41308600020DFF89C17A1
:1036C000086000F028FE0AE014F1010F07D1502035
:1036D00080F31188BFF34F8FBFF36F8FFEE713BDE9
:1036E000DFF8B0040068401CDFF8A81408607047D9
:1036F00070B500240025DFF89C040068002807D17D
:10370000502080F31188BFF34F8FBFF36F8FFEE718
:1037100000F045FEDFF87C040068401EDFF87414FA
:103720000860DFF87004006800285CD1DFF86403EB
:103730000068002857D0DFF81007006800282AD05A
:10374000DFF80407C068C068040014F1180000F036
:10375000A9FD201D00F0A6FDDFF87003006801211F
:10376000E26A91400843DFF864130860211DDFF826
:103770006003E26A14235A43104400F06AFDE06AD1
:10378000DFF814130968C96A8842D4D30120DFF82E
:10379000DC160860CFE7002C01D000F066FADFF8F5
:1037A000B8060668002E0ED000F021F8002803D0DD
:1037B0000120DFF8B8160860761E002EF4D1002034
:1037C000DFF894160860DFF8A406006800280AD025
:1037D000012005005FF08050DFF8E0140860BFF3BF
:1037E0004F8FBFF36F8F00F0F7FD280070BD2DE9FC
:1037F000F0410026DFF89C030068002840F0858037
:10380000DFF858060068471CDFF850060760002FF5
:1038100024D1DFF84C0600680068002807D050204B
:1038200080F31188BFF34F8FBFF36F8FFEE7DFF890
:10383000300600688046DFF82C060068DFF82016A6
:103840000860DFF82006C0F80080DFF81C0600687A
:10385000401CDFF81416086000F007FADFF8F405E2
:10386000006887423ED3DFF8F8050068006800284A
:1038700005D15FF0FF30DFF8DC15086032E0DFF8DB
:10388000E0050068C068C068040060680500AF42D9
:1038900003D2DFF8C005056024E0201D00F002FD22
:1038A000A06A002803D014F1180000F0FBFCDFF838
:1038B0001C0200680121E26A91400843DFF80C1203
:1038C0000860211D8248E26A14235A43104400F024
:1038D000C0FCE06A70490968C96A8842C3D3012004
:1038E0000600C0E77A486C490968C96A1422514346
:1038F0004058022801D301200600DFF85C0500686B
:1039000000280BD100F0E2FD08E0DFF84C0500686C
:10391000401CDFF84415086000F0D8FDDFF84C05C6
:103920000068002801D0012006003000BDE8F081C9
:1039300038B598480068002804D00120DFF82C151D
:10394000086049E00020DFF824150860524800684C
:10395000006B05005FF0A53004002868A04208D184
:103960006868A04205D1A868A04202D1E868A042D8
:1039700007D04948006810F134014748006800F05A
:10398000CFFD52490968B1FA81F1D1F11F01080058
:103990004F49142202FB00F28958002907D1502117
:1039A00081F31188BFF34F8FBFF36F8FFEE7484A53
:1039B000142303FB00F31A4411004A6852684A605A
:1039C0004A6811F108039A4202D14A6852684A6073
:1039D0004968C968304A116031BD38B504000D002E
:1039E000002C07D1502080F31188BFF34F8FBFF315
:1039F0006F8FFEE7DFF8FC04006810F1180120006B
:103A000000F033FC0121280000F032FA31BD70B51E
:103A10000400E068C0680500002D07D1502080F345
:103A20001188BFF34F8FBFF36F8FFEE715F11800BA
:103A300000F038FC57480068002813D1281D00F01A
:103A400031FC224800680121EA6A914008431F497D
:103A50000860291D1E48EA6A14235A43104400F0E6
:103A6000F8FB05E015F11801DFF8DC0300F0F1FBCD
:103A700009480068C06AE96A884206D20120060047
:103A80000120DFF87414086001E000200600300017
:103A900070BD0000649300205493002070930020B8
:103AA00080930020002807D1502181F31188BFF3B3
:103AB0004F8FBFF36F8FFEE7DFF8AC13096801602B
:103AC000DFF8381409684160704700006C930020EB
:103AD000F48C0020F8B504000D00002C07D1502014
:103AE00080F31188BFF34F8FBFF36F8FFEE7002D78
:103AF00007D1502080F31188BFF34F8FBFF36F8F32
:103B0000FEE700F04CFCDFF854030768286810F16A
:103B1000010F02D1002006001DE0DFF84C03006811
:103B20002168884205D06068874202D301200600E0
:103B300011E06068381A296888420AD22868C01BD8
:103B40006168081828602000FFF7ACFF002006001D
:103B500001E00120060000F03FFC3000F2BD012032
:103B6000DFF894130860704710B5040000F041F8C6
:103B7000DFF88C030068022808D35FF08050DFF87C
:103B800084130860BFF34F8FBFF36F8F00F0E4FC26
:103B9000ECE700008C93002010B500200400072CF7
:103BA00009D2DFF85C03142101FB04F1084400F0A2
:103BB0003EFB641CF3E7DFF8500300F038FBDFF84E
:103BC0004C0300F034FBDFF8800200F030FBDFF83C
:103BD000400300F02CFB654800F029FBDFF82803C8
:103BE000DFF87C120860DFF82403DFF82813086090
:103BF00010BD38B5DFF82003006800282BD0FFF790
:103C00006FFDDFF80C030068002801D1012400E0FB
:103C10000024FFF76DFD002CECD100F0C0FBDFF8B5
:103C2000F002C068C0680500281D00F03BFBDFF80B
:103C3000EC020068401EDFF8E4120860DFF8D802EA
:103C40000068401EDFF8D012086000F0C5FB2800B5
:103C500000F002F8CEE731BD10B50400206B00F093
:103C6000FDF9200000F0FAF910BDDFF8F411096841
:103C70000968002904D15FF0FF31764A116008E03D
:103C8000DFF8DC110968C968C96808004168714A31
:103C900011607047DFF888120968002902D10121FC
:103CA000080009E0DFF87C120968002902D102212E
:103CB000080001E0002108007047000004ED00E06A
:103CC00038B504002500002C4ED0E86ADFF8241235
:103CD0000968C96A884247D2A869002806D4DFF873
:103CE00014020068C06AD0F10700A8616869DFF8B3
:103CF0001012EA6A14235A43114488422FD1281D16
:103D000000F0D0FA002811D1DFF8F401E96A14229A
:103D100051434058002809D1DFF80C020068012106
:103D2000EA6A91408843DFF800120860DFF8C401B6
:103D30000068C06AE862DFF8F00100680121EA6A01
:103D400091400843DFF8E0110860291DDFF8B00159
:103D5000EA6A14235A43104400F07BFA04E0DFF8C7
:103D600094010068C06AE86231BD0000DC91002067
:103D700070B5040025000026002C53D0DFF8740134
:103D80000068854207D0502080F31188BFF34F8F21
:103D9000BFF36F8FFEE7A86C002807D1502080F397
:103DA0001188BFF34F8FBFF36F8FFEE7A86C401EE3
:103DB000A864E86A696C884234D0A86C002831D1C4
:103DC000281D00F06FFA002811D1DFF83401E96AEC
:103DD000142251434058002809D1DFF84C010068F3
:103DE0000121EA6A91408843DFF83C110860686C61
:103DF000E862E86AD0F10700A861DFF82C010068EA
:103E00000121EA6A91400843DFF81C110860291D6E
:103E1000DFF8EC00EA6A14235A43104400F019FA60
:103E200001200600300070BDDFF8C80000680028DF
:103E300005D0DFF8C0000068816C491C8164DFF8A0
:103E4000B400006870470000B491002088930020FF
:103E500088BA00088493002074930020689300209F
:103E6000589300205C9300207C93002078930020DE
:103E7000F8B504000D00214807681E480068001DC1
:103E800000F010FA00280BD11A480068264909688A
:103E90000122C06A12FA00F031EA000022490860EB
:103EA00014F1010F08D1002D06D012480068011D41
:103EB0001E4800F0CEF91BE0E01906000D4800682E
:103EC0004660BE4207D20B480068011D11480068D9
:103ED00000F0CBF90CE007480068011D14480068A9
:103EE00000F0C3F913480068864201D21148066009
:103EF000F1BD0000549300207893002068930020C7
:103F0000F48C002004ED00E08C910020A0910020B2
:103F1000C89100205C9300206093002064930020EF
:103F2000709300208C9300206C930020DC91002083
:103F300058930020849300202DE9F04104005FF0A5
:103F40000008FFF7CDFB99480068002801D100F078
:103F5000C5F89748006804426AD1002C15D09548EE
:103F60000068041914F0070F0FD014F1080014F0C2
:103F70000701441A14F0070F07D0502080F311886E
:103F8000BFF34F8FBFF36F8FFEE7002C50D08A48EE
:103F90000068A0424CD389480600884800680500A4
:103FA0006868A04205D22868002802D02E002D683B
:103FB000F6E77E48006885423AD030687D49096856
:103FC00008448046286830607A4800684000696884
:103FD000091B884215D205EB0400070017F0070003
:103FE000002807D0502080F31188BFF34F8FBFF314
:103FF0006F8FFEE76868001B78606C60380000F027
:10400000A4F86D4800686968401A6B4908606A48FE
:1040100000686B490968884203D2674800686849AC
:104020000860686862490968084368600020286081
:10403000FFF75EFBB8F1000F01D100F0B3FA18F002
:104040000700002807D0502080F31188BFF34F8F5E
:10405000BFF36F8FFEE74046BDE8F08170B5040006
:104060002600002C36D053480068404206443500F4
:1040700068684F490968084207D1502080F31188C9
:10408000BFF34F8FBFF36F8FFEE72868002807D07C
:10409000502080F31188BFF34F8FBFF36F8FFEE77F
:1040A000686843490968084214D02868002811D17B
:1040B00068683F49096888436860FFF711FB3E481C
:1040C0000068696808183C490860280000F03DF85D
:1040D000FFF70EFB70BD38480068704730B44FF4EE
:1040E000F043384C220012F0070F05D0D21DD20841
:1040F000D2009B1A334CE3181100304C216000248D
:104100002E4D6C605C1822002A4C2468121BD208C9
:10411000D200264C22600024244D2D686C600024BF
:10412000224D2D682C600800141A44601F4C24682E
:1041300004604468224D2C6044681F4D2C605FF081
:1041400000441B4D2C6030BC704710B41B4B1A0050
:104150001368834201D21268FAE7110053680B44D6
:10416000834204D153684468E3185360100001008F
:1041700043680B441468A34211D113680B4C2468A4
:10418000A34208D0436814686468E3184360136866
:104190001B68036005E0054B1B68036001E01368C2
:1041A0000360824200D0106010BC70471093002062
:1041B0001C930020BCBA000814930020EC9200204D
:1041C000189300205809002062F30F2262F31F4267
:1041D000401810F0030308D0C91A1FD3DB0748BFEB
:1041E00000F8012D28BF20F8022D130030B414462A
:1041F0001546103928BF20E93C00FAD8490728BFE6
:1042000020E90C0048BF40F8042D890028BF20F8A1
:10421000022D48BF00F8012D30BC7047C91818BFE7
:1042200000F8012DCB0728BF00F8012D704710F1D1
:10423000080141605FF0FF31816010F10801C16049
:1042400010F1080101610021016070470021016146
:10425000704742684A6093688B60936859609160C8
:10426000086103685B1C0360704710B40B6813F1AE
:10427000010F02D10469220008E010F108042200B5
:1042800054682468A34201D35268F9E754684C602B
:104290004C68A1608A60516008610468641C046015
:1042A00010BC7047010008698A684B689A604A68C8
:1042B0008B685A6042688A4201D18A684260002253
:1042C0000A610268521E026000687047001F5FF0BA
:1042D00080730360001F4B085B000360001F0FF238
:1042E0000D03036014380260203870476548006889
:1042F00010F1010F07D0502080F31188BFF34F8FCA
:10430000BFF36F8FFEE7502080F31188BFF34F8F0C
:10431000BFF36F8FFEE700B583B05B480178019172
:10432000FF21017001788DF800109DF8001011F048
:104330005001564A11700721554A11609DF800102E
:1043400009060AD552490968491E514A11609DF86B
:10435000001049008DF80010F0E74D490968090286
:104360004B4A11604A49096811F4E061484A1160FA
:10437000019901704748006850F470004549086091
:104380004448006850F070404249086000F08AF8E4
:1043900000203C49086000F056F900200EBD502076
:1043A00080F31188BFF34F8FBFF36F8F35480068DC
:1043B000401C344908603348006801280BD1364856
:1043C0000068000607D0502080F31188BFF34F8F9C
:1043D000BFF36F8FFEE770472A480068002807D1B7
:1043E000502080F31188BFF34F8FBFF36F8FFEE72C
:1043F00024480068401E23490860224800680028BD
:1044000002D1002080F31188704780B5502080F3DE
:104410001188BFF34F8FBFF36F8FFFF7E8F90028C4
:1044200003D05FF080501C490860002080F31188A1
:1044300001BD0000EFF305821000102811D3174AC8
:104440001268125C11000A00104B1B78D2B29A421B
:1044500007D2502282F31188BFF34F8FBFF36F8FC3
:10446000FEE70B4A12680E4B1B6813F4E0639A4296
:1044700007D2502282F31188BFF34F8FBFF36F8FA3
:10448000FEE770472C00002000E400E09E9300202F
:104490002493002020ED00E004ED00E0C0BA000805
:1044A0000CED00E0064800684FF47A71B0FBF1F0C3
:1044B000401E04490860072003490860704700BF98
:1044C0004800002014E000E010E000E010B50024F7
:1044D00000F022FA0400002C1DD00F4800680028CC
:1044E00007D100F0FFFC210000F05EFF01200A4927
:1044F0000860200000F0B8F8020092B22100052008
:1045000001F0FEF9054800F0AFF8020092B203494D
:10451000052001F0F5F910BD0C93002040B0000813
:1045200038B504000D00280000F09EF8020092B299
:104530002900052001F0E4F9064800F095F8020092
:1045400092B20449052001F0DBF94FF47A7001F0D2
:10455000A1FD31BD58B8000810B5002400F0CBF91A
:104560000400002C03D10D4801F0D0FD15E020001F
:1045700000F07AF8020092B22100052001F0C0F9A3
:10458000074800F071F8020092B20549052001F0D9
:10459000B7F94FF47A7001F07DFD10BDD89200207C
:1045A00040B0000880B50C480088401C0A490880CB
:1045B000094800880B280DDB084800F055F8020078
:1045C00092B20649052001F09BF94FF47A7001F090
:1045D00061FDEDE701BD00BF989300209CB6000887
:1045E000EFF30980BFF36F8F1D4B1A6820E9F00FBE
:1045F000106008B54FF0500080F31188BFF34F8F63
:10460000BFF36F8FFFF794F94FF0000080F311882C
:10461000BDE8084019680868B0E8F00F80F3098821
:10462000BFF36F8F70470E4B19680868B0E8F00F42
:1046300080F30988BFF36F8F4FF0000080F311887B
:104640004EF00D0E704707480068006880F3088838
:1046500062B661B6BFF34F8FBFF36F8F00DF00000C
:104660005493002008ED00E038B504000025002C2C
:1046700003D02000FEF7F4F80500280032BD38B55D
:1046800004000025002C0BD0207801F046FD002806
:1046900006D00A202178303900FB0515641CF3E7A9
:1046A000280032BD70B506000025002E01D1002083
:1046B0002FE03078302806D17078782802D07078D2
:1046C000582800D1B61C3078002821D0307801F06D
:1046D00024FD002803D030783038040014E030780E
:1046E000412806DB3078472803DA30783738040071
:1046F0000AE03078612806DB3078672803DA307802
:104700005738040000E003E014EB0515761CDAE7E7
:10471000280070BDF0B40300180000252C0025000F
:104720001600ADB2B6B2B5420DD2DFF8B4530600F2
:10473000B6B20F7897EA262635F8165095EA00208B
:10474000491C641CEBE780B2F0BC704702000020FB
:104750001100C9B209090A235943080012F00F01D8
:104760000818C0B2704738B5040025002878002822
:1047700006D0287801F0D6FC002801D06D1CF5E7A2
:1047800000202870200032BD0100002000220029F6
:1047900017D00B68002B14D0DFF848331B68002BB0
:1047A00003D1DFF84033196009E0DFF838331B68C4
:1047B0001A009368002B01D09268FAE791600123F8
:1047C00018007047F0B591B0040000250026DFF80E
:1047D0001403076800200500102D05DA0020694643
:1047E00041F825006D1CF7E72078002806D02078D6
:1047F00001F0ACFC002801D1641CF5E701200500A4
:1048000000942600307800281BD0102D19DA30785B
:10481000002804D03078202801D0761CF7E73078C3
:10482000002806D03078202803D100203070761C74
:10483000F5E730780028E5D0684640F825606D1C23
:10484000E0E70020694641F82500002F0ED0012D39
:104850000ADB3968200001F091FC002804D1694688
:1048600028007A68904701E0BF68EEE711B0F0BD1C
:10487000F8B504000D005FF0FF360027BFB254F812
:10488000270000280CD02900BFB254F8270001F0FF
:1048900075FC002802D1BFB23E0001E07F1CEDE7AD
:1048A0003000F2BD81B0002100910099814203D215
:1048B0000099491C0091F8E701B07047DFF8282201
:1048C0001268002A03D1DFF8202210600FE0DFF821
:1048D000182212681100814204D00A69002A01D00E
:1048E0000969F8E7814202D000220261086170473D
:1048F0000021C16070470020DFF8EC211268110030
:10490000002908D0CA688B689A4202D30A6810004E
:1049100001E00969F4E770470020DFF8CC21126854
:10492000110000290ED04A68002A09D0CA68521C1A
:10493000CA60CA688B689A4202D30A68100001E014
:104940000969EEE77047030000290DD0002A0BD05B
:10495000501E104208D11960501E58600020986007
:104960000020D860012000E00020704738B5040026
:104970000D00200000F00FF86168814209D3206823
:10498000E168626811404554E068401CE060012025
:1049900000E0002032BD8168C068401A7047C168DD
:1049A000816070472DE9F04104000D0016000027DA
:1049B0005FF00008002D18D0002E16D02000FFF761
:1049C000EAFF0700B74200D23E00002E0DD020685B
:1049D000A16862681140405C05F80800A068401CAE
:1049E000A060761E18F10108EFE74046BDE8F081AF
:1049F0002DE9F04104000D00160000275FF00008CB
:104A0000002D1BD0002E19D02000FFF7C4FF6168D5
:104A1000081A401C0700B74200D23E00002E0DD0FD
:104A20002068E1686268114015F808204254E06887
:104A3000401CE060761E18F10108EFE74046BDE833
:104A4000F08170B504000D0000262000FFF7A3FFE1
:104A5000854206D22068A168691862681140405CEE
:104A600006003000C0B270BDF0B400230C00002579
:104A70000026330092B2934226DAC65C102796FBDA
:104A8000F7F635002600741CEDB20A2D02DB15F195
:104A9000370701E015F130073770C65C102796FB29
:104AA000F7FC07FB1C6635002600741CEDB20A2DCE
:104AB00002DB15F1370701E015F1300737702026CA
:104AC0002670641C5B1CD5E70D262670641C0A2624
:104AD0002670641C00262670641CF0BC7047000021
:104AE000CCAA0008289300202C930020F0B583B0B6
:104AF0000400002500260027EFF30580002808D1D8
:104B00005FF0FF31DFF87C05006801F09BFB0028B7
:104B100050D18120060000200500EDB2072D09DAF2
:104B20003000C0B200F0E7F96946EDB24855B61C56
:104B30006D1CF2E7EFF30580002804D1DFF844058F
:104B4000006801F0C2FB9DF80000FF2832D09DF8FC
:104B5000000010F07F00FFF7F9FDE0719DF8010003
:104B600010F07F00FFF7F2FDA0719DF8020010F039
:104B70003F00FFF7EBFD60719DF8030010F03F0070
:104B8000FFF7E4FD20719DF8040010F01F00FFF70F
:104B9000DDFDE0709DF8050010F00700FFF7D6FD81
:104BA000A0709DF80600FFF7D1FD00F2B2702080E2
:104BB000012007003800FEBD30B587B004000D00AD
:104BC00004A9200000F017F89DF8170003909DF845
:104BD000160002909DF8150001909DF814000090B9
:104BE0009DF81330BDF81020DFF89C14280001F068
:104BF00025FC07B030BD2DE9F14F82B00C005FF00D
:104C0000000900208DF8000000255FF0000B5FF028
:104C1000000A002600275FF0000802980700DFF86E
:104C20006C04B7FBF0F08046DFF86004B7FBF0F1EE
:104C300000FB1170060040F2B27083461FFA8BFB36
:104C400004209BFBF0F100FB11B0002808D11FFAF3
:104C50008BFB64209BFBF0F100FB11B0002812D10C
:104C60001FFA8BFB64209BFBF0F100FB11B00028C6
:104C70000CD11FFA8BFB4FF4C8709BFBF0F100FBCB
:104C800011B0002802D14FF4B77A01E040F26D1A5A
:104C90001FFA8AFAD04530D31FFA8AFAB8EB0A080D
:104CA0001BF1010B1FFA8BFB04209BFBF0F100FBB7
:104CB00011B0002808D11FFA8BFB64209BFBF0F198
:104CC00000FB11B0002812D11FFA8BFB64209BFB64
:104CD000F0F100FB11B000280CD11FFA8BFB4FF450
:104CE000C8709BFBF0F100FB11B0002802D14FF41B
:104CF000B77ACDE740F26D1ACAE701208146DFF8A6
:104D00009003007882461FFA8AFAD04542D35FFAB0
:104D100089F9B9F10C0F3DDA1FFA8AFAB8EB0A08E3
:104D200019F10109DFF868035FFA89F9484410F8BE
:104D3000010C82465FFA89F9B9F1020FE3D11FFA3B
:104D40008BFB04209BFBF0F100FB11B0002808D185
:104D50001FFA8BFB64209BFBF0F100FB11B00028D5
:104D600012D11FFA8BFB64209BFBF0F100FB11B00A
:104D700000280CD11FFA8BFB4FF4C8709BFBF0F19D
:104D800000FB11B0002802D15FF01D0ABBE75FF005
:104D90001C0AB8E74FF46160B6FBF0F08DF8000034
:104DA0004FF46160B6FBF0F100FB11603C21B0FBF9
:104DB000F1F005003C20B6FBF0F100FB1166E67156
:104DC000A5719DF80000607118F10100207184F850
:104DD0000390A4F800B02279E178208800F00FF960
:104DE000A070BDE8F78F30B40100002300220888CE
:104DF00040F2B274A04201DA002071E00888A0F20B
:104E0000B270DFF890426043030040F2B2700200DB
:104E1000088882421DD212F0030F06D16420B2FB33
:104E2000F0F400FB142000280ED16420B2FBF0F453
:104E300000FB142000280AD14FF4C870B2FBF0F434
:104E400000FB1420002802D1DFF84002C318521CD6
:104E5000DEE700200200C878401E82422ED2DFF832
:104E60003002805CDFF8244204FB0033012A23D1A6
:104E70000888042490FBF4F504FB1500002807D1F2
:104E80000888642490FBF4F504FB1500002810D179
:104E90000888642490FBF4F504FB150000280BD16E
:104EA00008884FF4C87490FBF4F504FB1500002843
:104EB00002D1DFF8D801C318521CCCE70879401E94
:104EC000DFF8C84104FB003348794FF4616404FB08
:104ED000003388793C2404FB0033C879C3181800D8
:104EE00030BC704700B583B06846FFF7FFFD6846E9
:104EF000FFF779FF0EBD70B50400002500262020C5
:104F0000DFF8941108601020DFF89011086001208C
:104F1000DFF8881148600320DFF88011C860DFF8EF
:104F20007C11DFF87C0101F0A3FA5FF48010DFF858
:104F300068110860260000200500EDB2082D1EDA79
:104F40005FF40020DFF8501108600220FFF7AAFC90
:104F5000F00704D51020DFF84011086004E05FF48A
:104F60008010DFF8341108600820DFF82C11086089
:104F70000220FFF797FCF6B276086D1CDDE71020E3
:104F8000DFF8181108600020DFF8101148600120D8
:104F9000DFF808118860DFF80411DFF8040101F080
:104FA00067FA0020060000200500EDB2082D19DA8E
:104FB000F6B276085FF40020DFF8DC10086002200B
:104FC000FFF770FCDFF8DC000068C00601D556F082
:104FD00080060820DFF8C01008600220FFF762FC9E
:104FE0006D1CE2E75FF40020DFF8AC1008605FF4AE
:104FF0000010DFF8A41008603000C0B270BDF0B43B
:1050000003009BB2642093FBF0F005009BB2642088
:1050100093FBF0F700FB17300600EDB2142D00DB18
:105020006436F6B2F6B2042096FBF0F08019040064
:10503000A4B2072094FBF0F700FB1744D2B2DFF8CC
:105040006800C9B2084410F8010C80180419F6B2BF
:10505000042096FBF0F700FB1760002803D1C9B2CB
:10506000032900DA641EA4B2072094FBF0F700FBCA
:105070001744A4B2002C01D1072001E02000C0B2E7
:10508000F0BC70473093002074B5000880510100D7
:1050900098B900088033E10110180140789200208F
:1050A00000180140081801408CB90008BFF34F8F69
:1050B000DFF81406006810F4E060DFF8101608430B
:1050C000DFF804160860BFF34F8F00BFFDE71CB583
:1050D0000024DFF8FC05006850F08050DFF8F01580
:1050E0000860DFF8EC05006810F080500090009830
:1050F000DFF8DC05006850F00060DFF8D4150860C8
:10510000DFF8CC05006810F000600090009801F016
:1051100049FB00F065F9DFF8BC15032001F00DFC38
:10512000DFF8B415032001F008FCE4B2002C01D034
:10513000FFF7BCFF4FF40062DFF8A015DFF8A00511
:10514000FFF701FCDFF89C050068019001A801F061
:1051500073F8DFF894150860DFF89005FFF714FB8B
:10516000DFF88C15032001F0E8FB13BD10B5040037
:10517000FFF715F9DFF87C050460FFF72DF910BD86
:1051800038B504000D00DFF870050068A04206D1B4
:10519000DFF864058088290089B2884209D0FFF7CA
:1051A000FEF8DFF854050460DFF84C058580FFF752
:1051B00013F9DFF8440581880FF2F11289B2DFF8A4
:1051C0003805006801F09AFE31BDF8B504000D0005
:1051D00000265FF0FF37002C03D0DFF81C050068C5
:1051E0002060002D03D0DFF8100580882880DFF8CC
:1051F00008050068002804D0DFF8FC048088002837
:1052000001D1002029E001F058FE07007FB2012FF4
:1052100001DB0E20060076B2012E17DB01F0AAFE9C
:10522000DFF8D8140968401A4EF66021884212D37C
:1052300001F0A0FEDFF8C414086076B20E2E0AD08A
:1052400000220021002001F059FE04E001F092FE4E
:10525000DFF8A8140860300040B2F2BD80B501F05C
:1052600089FEDFF89C140968401AB0F5FA7F0CD368
:10527000DFF89004006890F48070DFF8881408600C
:1052800001F078FEDFF87814086001BDDFF87814CB
:1052900009684180DFF8741409680180DFF8701430
:1052A0000968C180DFF86C140968818070470020AC
:1052B000DFF8581408600020DFF84C140860002064
:1052C000DFF8501408600020DFF8441408607047CD
:1052D0000020DFF84414080001684268920812EBCD
:1052E0005101806811EBD0007047704770B598B0DD
:1052F00004000D005FF448200600B6F5672F37D292
:1053000004A9300000F03BF800282CD00798A042F8
:1053100029D30798854226D312A90798FFF74CFC9A
:10532000BDF816000390BDF818000290BDF81200F9
:105330000190BDF81400009012AB079ADFF8DC135F
:10534000032001F0FAFA089800280CD012A9089856
:10535000FFF732FC12A80090089B09AADFF8C013DF
:10536000032001F0EAFA022000F058FF4036C4E7BB
:10537000DFF8B013032001F0E0FA18B070BD38B5C3
:1053800004000D0038222900200001F05AFE3622C8
:10539000A91C0020FFF7BEF9298880B2884201D1FC
:1053A000012000E0002032BD7047000038B5040045
:1053B0000D0000210020FFF708FF01280FDB5FF040
:1053C000FF31C948006800F03DFFADB22A0021005E
:1053D000C348FFF70DFBC448006800F076FF31BDFD
:1053E00000B583B06846FFF751FFCF4800688000E2
:1053F00004D5BDF80200401CADF80200CA480068A0
:10540000C00004D5BDF80400401CADF80400C64837
:105410000068000104D5BDF80600401CADF8060088
:10542000C1480068400104D5BDF80000401CADF83B
:1054300000000120BD490860BDF80200B2490860C3
:10544000BDF80000B1490860BDF80600B049086029
:10545000BDF80400AF49086007BD2DE9F04794B0DE
:10546000814688460024002518F10408B9F1010995
:10547000AF49D8F8000000F081FE002811D1D8F81B
:105480000400FFF7FCF80500ADB22A00A94903208B
:1054900001F053FAADB2681D00F0C0FEFFF706FE42
:1054A0000FE1A549D8F8000000F068FE002808D1F7
:1054B000A2480090A24BA34AA349032001F03DFA61
:1054C000FFE0A249D8F8000000F058FE00281DD1E6
:1054D000D8F80400FFF7D3F80500ADB22800FEF7B6
:1054E0002BFD0400002C0AD02000FEF7B7FD23009E
:1054F000ADB22A009649032001F01FFAE1E0ADB2F7
:105500002A009449032001F018FADAE09249D8F809
:10551000000000F033FE002811D102A8FFF7B6FE0C
:10552000BDF80C000190BDF80E000090BDF80830E9
:10553000BDF80A208949032001F0FFF9C1E088493C
:10554000D8F8000000F01AFE002806D1FFF7AFFEE1
:105550008449032001F0F1F9B3E08349D8F8000051
:1055600000F00CFE002807D1FEF7B5FD02007F49D0
:10557000032001F0E2F9A4E07D49D8F8000000F032
:10558000FDFD002807D1FFF7A3FE020079490320A3
:1055900001F0D3F995E07849D8F8000000F0EEFD6D
:1055A00000281ED1D8F80400002800F08A80D8F81E
:1055B0000800002800F08580D8F80400FFF75FF8A5
:1055C0000600D8F80800FFF75AF807003B00320041
:1055D0006A49032001F0B1F939003000FFF786FE77
:1055E0006FE06749D8F8000000F0C8FD00281CD122
:1055F0005FF0000A402204A95FF4682001F021FD59
:1056000004980600002E0BD016F1010F08D005A853
:105610008246330052465B49032001F08EF950E088
:105620005949032001F089F94BE05849D8F80000A6
:1056300000F0A4FD00280AD100210020FFF7C5FDDD
:1056400040B202005249032001F077F939E0514994
:10565000D8F8000000F092FD00281CD1D8F8040012
:1056600000282ED0D8F8080000282AD0D8F8041036
:10567000494802F03FF9D8F80800FFF700F8474919
:105680000880464801884448FFF77AFD44490320D2
:1056900001F053F915E04349D8F8000000F06EFD21
:1056A00000280ED1D8F80400FEF7E9FFFFF75EFDF1
:1056B000D8F80400FEF7E3FF02003B49032001F0A5
:1056C0003CF914B0BDE8F0870CED00E00400FA05E9
:1056D0001C100240D0AF000830B1000858810020F3
:1056E00098920020C8BA0008449300203C00002093
:1056F00080B8000848930020FC9200204C930020C2
:10570000509300200C080140206C0040246C0040A5
:10571000186C00401C6C0040E8F7FF1F20AF000829
:105720005CB10008A8B2000824100240E004424224
:1057300058BA0008D0B2000860BA0008D8B800080B
:10574000C8B8000868BA00085CAF000870BA000862
:1057500000B10008D4B30008A4B9000864AE000882
:10576000E8B80008F8B30008F8B80008B4B50008B5
:1057700078BA000894B80008B0B90008D4B5000899
:10578000BCB900081CB4000840B40008C8B900083F
:1057900064B40008D4B90008549100209A93002002
:1057A000F0B60008E0B900080CB70008F8B504002E
:1057B0000D0016000027DFF868080068002807D1F0
:1057C000DFF86008FEF7E0FF0120DFF854180860FA
:1057D000E4B2002C4ED0E4B2062C4BDAB6B2002E66
:1057E00048D0B6B2701EB6B2304243D1002120007C
:1057F000C0B200F014FBB6B23000FEF79DFB07000C
:10580000002F37D0641EDFF82008E4B240F824509F
:10581000DFF81808E4B200EB840000F00DFDDFF8BB
:105820001018E4B241F824000121DFF80808E4B2BE
:1058300000EB840000F073FDDFF8FC17E4B241F8E0
:1058400024005FF0FF31DFF8F007E4B250F82400E5
:1058500000F07CFDB6B232003900DFF8E007E4B2B8
:1058600023011844FFF76FF82868C06850F0200043
:105870002968C860F1BDF8B504000D0016000027C6
:10588000E4B2002C39D0E4B2062C36DA002D34D044
:10589000B6B2002E31D05FF0FF31DFF89407E4B2EA
:1058A00000EB840050F8040C00F0CCFC0121200037
:1058B000C0B200F0B4FA320092B229002000C0B2A7
:1058C00000F0BDFA5FF0FF31DFF86C07E4B200EBE7
:1058D000840050F8040C00F039FD00212000C0B213
:1058E00000F09DFADFF84807E4B200EB840050F8BE
:1058F000040C00F0EAFCB6B23700380080B2F2BD0A
:1059000070B504000D001600E4B2002C22D0E4B201
:10591000062C1FDA002D1DD0B6B2002E1AD00121A0
:105920002000C0B200F07BFA4FF4FA63320092B26A
:105930002900DFF8F406E4B200EB840050F8040C10
:1059400002F035F800212000C0B200F068FA300003
:1059500080B200E0002070BD0CB42DE9F041ADF53F
:10596000007D04000D0000266F46E4B2002C19D023
:10597000E4B2062C16DA002D14D086A880464346E1
:105980002A004FF40071380002F0B6FB3800FCF733
:1059900067FF0600320092B239002000C0B2FFF764
:1059A000AFFF0600300080B20DF5007DBDE8F001CC
:1059B0005DF80CFB38B504000025E4B2002C0BD0D8
:1059C000E4B2062C08DADFF87406E4B221010844D8
:1059D0001038FEF7E0FF0500280080B232BD70B538
:1059E00004000D000026E4B2002C0DD0E4B2062C19
:1059F0000ADAADB22900DFF84406E4B2220110440D
:105A00001038FFF71EF806003000C0B270BDF8B5C0
:105A100004000D0016000027E4B2002C15D0E4B2FB
:105A2000062C12DA002D10D0B6B2002E0DD000F0E8
:105A3000D6F8B6B232002900DFF80006E4B223013E
:105A400018441038FEF7AEFF0700380080B2F2BDF0
:105A500038B504000025E4B2002C13D0E4B2062CC3
:105A600010DA01F087FADFF8D815E4B201EB84010F
:105A700051F8041C401A050041F28930854201D3D7
:105A800000200500280032BD38B504000D00E4B246
:105A9000002C45D0E4B2062C42DADFF88C05E4B2E3
:105AA00000EB840050F8040C4068854238D0DFF8E1
:105AB0007805E4B200EB840050F8040C0068DFF8CD
:105AC0006815E4B201EB840151F8041C0968C96847
:105AD00031F02001C160DFF85005E4B200EB840032
